:100000000C945F000C9400000C9400000C94000011
:100010000C9400000C9400000C9400000C94000060
:100020000C94B5010C9400000C9400000C9400009A
:100030000C9400000C9400000C9400000C94000040
:100040000C9400000C9400000C9400000C94000030
:100050000C9400001027E80364000A00010000105F
:1000600000011000010000002020416C61726D2031
:1000700020436C6F636B2020004F4E20004F46469C
:100080000054696D653A202532643A253032643A6D
:100090002530326400416C726D3A202532643A2575
:1000A000303264202573000080C001000200660029
:1000B00011006001680002008601A8000000F894A9
:1000C000EE27ECBBF1E0FBBFEBBFE5BF8DE0A2E0AC
:1000D000BB27ED938A95E9F780E094E0A0E6ED93E5
:1000E0000197E9F7EAEAF0E085919591009761F0D0
:1000F000A591B59105901590BF01F00105900D9265
:100100000197E1F7FB01F0CFEFE5EDBFE4E0EEBFD3
:10011000C0E6D1E00C948C00E0E0EABBEBBBEFEF73
:10012000E7BBE8BB889A9098E0E0EFBDE1E0EEBD68
:10013000E0E0EDBDECBDE7BDE6BDEBBDEABDE9BD70
:10014000E8BDE4E0E9BF0E94A805E0E0EA93A0E092
:100150006CD1A0E10E9406030E94D202A0E6B1E0A9
:100160000E94F502A4ECB9E00E94F9050E94D202B7
:1001700078940E940C05EF3F31F40E941105E9E7E5
:10018000F0E00E9416050E940C05E03031F40E9458
:100190001105EDE7F0E00E9416050E941D0501D053
:1001A000FFCFA8D0E894B09968940E942F05E0E0B2
:1001B000B099E1E00E94380521FC0CC0B72CB39443
:1001C000E7E1EB1508F4BB24E0E0EA93BA926A9207
:1001D0000E943D05E894B19968940E942F05E0E0E3
:1001E000B199E1E00E94380521FC0CC0A62CA39433
:1001F000EBE3EA1508F4AA24E0E0EA937A92AA92E3
:100200000E943D05E894B29968940E942F05E0E0B1
:10021000B299E1E00E94380521FC0EC00E9443051E
:10022000EF5F0E9424060E944305E83128F0A1E018
:10023000B0E0E0E00E942406E894B39968940E943C
:100240002F05E0E0B399E1E00E94380521FC0EC0E3
:100250000E944805EF5F0E9424060E944805EC3387
:1002600028F0A2E0B0E0E0E00E942406E894B4990F
:1002700068940E942F05E0E0B499E1E00E943805FF
:1002800021FC21C00E940C05E03051F4A0E0B0E058
:10029000EFEF0E9424060E941105E9E7F0E00DC08F
:1002A0000E940C05EF3F79F4A0E0B0E0E0E00E948E
:1002B00024060E941105EDE7F0E0FA93EA9380E04E
:1002C0000E94A80424960E9443057E1621F40E94F1
:1002D00048056E1609F005C00E940C05EF3F09F4B1
:1002E000909A909B04C00E940C05E03009F001C078
:1002F000909857CFE2E7F1E0FA93EA93E1E8F0E073
:10030000FA93EA93E72D0E944D05E62D0E944D05D4
:10031000E92D0E944D058CE00E94A804609642D110
:10032000E0E0EA93A0E00E945305E2E7F1E0FA93EF
:10033000EA93E5E9F0E0FA93EA930E9443050E940C
:100340004D050E9448050E944D05E2E8F1E0662750
:1003500077270E9413068CE00E94A8046096E0E0D4
:10036000EA93A1E00E94530508950A921A92FA9224
:100370006A937A938A939A93AA93BA93EA93FA9395
:10038000EFB7EA93F20131962F01EFE0F0E0E415C8
:10039000F50521F4442455240E941D05E991EFBF81
:1003A000F991E991B991A99199918991799169917D
:1003B000F990199009901895AA931A93EA81EE0F73
:1003C000E06A1E2F0E94AD05A12F0E94E105A981C0
:1003D0000E94E1050E94AD05E12FE160AE2F0E9471
:1003E000E105A0E00E94C6051E2F0E94BC05E12F7A
:1003F0000AC1AA930E94AD05EA81EE0FE06AAE2F12
:100400000E94E105A9810E94E105A8810E94E10501
:100410000E94BC05F9C0AA93E881EA93A0E0CCDF72
:10042000E0937101E1FB20F81DC1AA931A9310E932
:10043000E981E03009F010EBE0E0E0937101E8942D
:1004400020F8EA81EA93E0E0EA93A0E0D2DFEA81D3
:10045000EA93E4E0EA93EC81EA93A4E0ADDFEF7382
:10046000AE2FC7DFEA81EA93E8E0EA93A12FC1DF6C
:10047000CAC00E945905E0680E946005F3C00E944E
:100480005905EF770E946005EDC00E945905EF7B8A
:100490000E946005E7C00E945905E0640E94600563
:1004A000E1C0AA93E981EA93A98186DFAE2F0E9479
:1004B000F50476C0AA93EA81EA93EA81EA93AA81D5
:1004C0000E940205AE2F95DF9FC0BA93AA93A8851C
:1004D000E2DFE885EA93A1E0E4DFA881B981EC934B
:1004E000E885EA93A2E0DDDFAA81BB81EC93E88591
:1004F000EA93A3E0D6DFAC81BD81EC93E885EA9373
:10050000A4E0CFDFAE81BF81EC93A885BEDF299642
:100510000895AA93AC81ADDFEC81EA93E1E0EA9320
:10052000AA810E946A05E2E0EA93AB810E946A0513
:10053000E3E0EA93AC810E946A05E4E0EA93AD81CE
:10054000B9DFAC819CDF0C947203AA93EBB3EF701C
:10055000AE2FE881E07FEA2BEBBB82E08A95F1F7D2
:10056000DA9A82E08A95F1F7DA9882E08A95F1F7D3
:1005700079C0AA93A881E9DFE881E295E883A881A0
:10058000E4DF81E18A95F1F76DC0AA93E881F0E09C
:10059000EA57FE4FE081A981AE0FEBDFD980C8801A
:1005A00022960895A2E00E946F05ACE0E2DFA1E090
:1005B0000E946F05E0E0CE2EDE2E0895AA93A8815A
:1005C000AA3021F0E0918A01DE1648F0E0E0EA93DB
:1005D000C394AC2DDADFA881AA3009F443C0D394C8
:1005E000D89AA881C6DFD8983DC0BA93AA931A9327
:1005F000A981BA81ED91A983BA831E2FE03019F049
:10060000A12FDCDFF5CF188123960895AA93EAB3D2
:10061000E06FEABBD29AD09AD19ADA98D898D99852
:10062000E881E0938A01E058E0938801E881E05492
:10063000E0938901A4E1B0E00E94F9050E947505EC
:100640000E9475050E947505A0E27FDF81E28A9510
:10065000F1F7A8E28EDFA4E08CDFA5E88ADFA6E050
:1006600088DFA0DF21960895BA93AA931A930A937C
:10067000AA81BB8112960E940B06309759F1AA817C
:10068000BB8114960E940B068F01309761F00230F7
:10069000E0E01E0798F0F80131978F01AA81BB8135
:1006A0001496ED93FC93AA81BB811296ED91FD9176
:1006B0003196FE93EE933197AC81A083AA81BB81E2
:1006C0000E940B06FF232AF0ED91FD913196FE93D7
:1006D000EE9306C0AA81BB81EFEFFFEFED93FC9391
:1006E0001981088125960895BA93AA9326970E94A6
:1006F0003A0610E0AC85BD85E0E0F0E0ED93FC93B8
:10070000EA89FB893196EA8BFB8B3197E4912E2F96
:10071000E03009F415C1E12FE03039F4253211F44D
:1007200011E002C00E947C050AC1E130A9F4253223
:1007300019F40E947C0502C112E040E000E02D3275
:1007400011F401E0FCC02B3211F44BE2F8C020326E
:1007500011F440E2F4C002C0E23039F450E013E09A
:10076000203311F40068EBC003C0E33009F0E7C0A8
:10077000203310F02A3308F007C0AAE05A9F502D0A
:10078000E22FE0535E0FDBC0E22FE33649F40E9414
:100790008305E889F989A481AA930E948905CEC0BE
:1007A000E33741F40E9483050E948F050E94DC0418
:1007B0001E2F0AC0E03761F40E9483050E948F0556
:1007C0000E94E8041E2F086002600F7730E034C0FA
:1007D000E43611F0E93611F4046002C0E53731F473
:1007E000E4E5F0E0EE83FF8315E00CC0E83511F49A
:1007F000086003C0E83709F0A1C0EEE5F0E0EE8341
:10080000FF8314E002FF14C00E9483050E94990533
:10081000AB85AA233AF4EA85FB850E940706EA879E
:10082000FB874DE2403011F01F5F01C00B7F04C019
:100830000E9483050E94990500FD11C0151778F4E8
:1008400007FF08C002FF04C00B7F242F115001C016
:1008500020E301C020E20E947C055150EFCF312FF0
:1008600001FF17C03030A1F003FF06C0EE81FF8109
:100870002591EE83FF8305C0AE81BF812D91AE83AC
:10088000BF830E947C05503009F051503150EACFAF
:100890004BC020E3EE81FF810E940F06E887F987B5
:1008A000EE81FF813296EE83FF83E885F985AA8584
:1008B000BB85AE17BF0750F02F5FA885B985EA85C5
:1008C000FB85EA1BFB0BEA87FB87EFCF2A3328F077
:1008D00003FF02C0295F01C0295D04FD1AC0213356
:1008E00020F4A885B985119709F409C0531710F0B1
:1008F00000FF01C013C020E207FF0BC020E300612E
:1009000002FF07C00B7F4A930E948905503009F00F
:1009100051500E947C05503009F051503150A8854B
:10092000B985129708F0B5CF00FF08C0503031F0FC
:100930005150E0E2EA930E948905F8CF10E0E0CE42
:10094000AC85BD850E940B060E9441066496089501
:10095000FF92F82E26970E943C060E94A105309730
:1009600019F4EFEFFFEF23C0DE0116960E94030695
:100970008D010E94A105EE83FF83E0E0E887E9870F
:10098000DE011A960E9403060E940B06FA93EA9370
:100990001A930A93E4E3F3E0FA93EA93DE011A96DA
:1009A000A3DE9F01AE81BF81E0E0EC93F9010E94DC
:1009B00043062A96FF900895BA93AA93A991B991F4
:1009C000EE27FF276D91662311F03196FBCF089536
:1009D000BA93AA93AA27BB27E991F9910590002021
:1009E00011F01196FBCFFD010895AA93E881E295DD
:1009F000EF70AE2FAA0FAA0FEA0FEE0FA991AF70FA
:100A0000EA0F0895AA93A991EE27AA5012F0E05F89
:100A1000FCCFA65FEA0F0895A0E0B0E00E941806A0
:100A20000895E2E8F1E0FA93EA930895FA93EA93DD
:100A300080E00E94A80424960895E0E0EA93E7E0AD
:100A4000F0E0FA93EA93E6E0F0E0FA93EA93E9E063
:100A5000F0E0FA93EA93A8E0B0E00C94650221F884
:100A6000A2E3B0E00E94F905A0E021FCA1E0089516
:100A7000EA2B0E94350621F80895E0E0EA93A0E011
:100A80000E948902DACFA1E0B0E00E941806089522
:100A9000A2E0B0E00E9418060895FF276627772796
:100AA0000E94130608950E94C502A2E7B1E00C94CB
:100AB000F502AA93A8810E940B02E09171010895AA
:100AC000E0937101E881EA93E0E0EA93A09171017B
:100AD0000C94F9010E945A02EC81EA9308950E9455
:100AE000B902A3E0B0E00C94F905A0E30E94A502CE
:100AF00081E28A95F1F708952A93AD85BE85EF8549
:100B0000F88909950895E889F9893497E88BF98B74
:100B10000895AD85BE85EF85F88909950895A88962
:100B2000B98914960E940B06EE83FF83AE81BF81C4
:100B30000895A889B98914960E940B06EA87FB8755
:100B40000895DE011C960E9403060E940B0608957C
:100B5000A898A998A09AA19815C0A198A098EE2746
:100B60000000999B0895989B089504D0A19A02D003
:100B7000A09AE1E062E007C0A19AA09A03D0A098F1
:100B8000F9DFA19863E06A95F1F7089578E0A098FD
:100B9000F1DF989BFECFEEDF889499990894A09A94
:100BA000F1DFEE1F7A9599F77A2F772311F4A19848
:100BB00001C0A19ADFDFA098E5DFA09ADBDFA19852
:100BC000D9CF78E0AA0F10F4A19801C0A19ADADF7A
:100BD000A098D0DF989BFECFCDDFA09A7A9591F7B1
:100BE000A198C8DFA098CEDFE1E09999EE27A09AFE
:100BF000C1CF109639F08AEF90E00197F1F7A895F0
:100C00001197C9F708950024AF0DB01D0895F1950F
:100C1000E195F0400895ED91FC91119708950590AC
:100C2000F491E02D08957A936A93FA93EA930895E4
:100C3000E199FECFFF93FFB7F894AEBBBFBBE09A3C
:100C4000EDB3FFBFFF910895E19B02C0A895FCCFD3
:100C50009FB7F894AEBBBFBBE09A8DB3E81719F00D
:100C6000EDBBE29AE19A9FBF0895E894EE2309F064
:100C7000689408955A934A933A932A931A930A933D
:100C800008955D814C813B812A81198108810895F5
:00000001FF
